:020000040800F2
:10000000C00A002089010008170F0008370E0008F9
:10001000150F00088F02000863140008000000009C
:10002000000000000000000000000000191300089C
:100030009102000800000000171300081B130008BD
:10004000A3010008A3010008A3010008A301000800
:10005000A3010008A3010008A3010008A3010008F0
:10006000A3010008A3010008A3010008A3010008E0
:10007000A3010008A3010008A3010008A3010008D0
:10008000A3010008A3010008A3010008A3010008C0
:10009000A3010008A3010008A3010008A3010008B0
:1000A000A301000881130008A3010008A3010008B0
:1000B000A3010008A3010008A3010008A301000890
:1000C000A3010008A3010008A3010008A301000880
:1000D000A3010008A3010008A3010008A301000870
:1000E000A3010008A3010008A301000800F002F822
:1000F00000F03AF80AA090E8000C82448344AAF188
:100100000107DA4501D100F02FF8AFF2090EBAE885
:100110000F0013F0010F18BFFB1A43F0010318473B
:100120001C1C00003C1C0000103A24BF78C878C199
:10013000FAD8520724BF30C830C144BF04680C60ED
:10014000704700000023002400250026103A28BF35
:1001500078C1FBD8520728BF30C148BF0B60704739
:100160001FB51FBD10B510BD00F05CF81146FFF7BC
:10017000F7FF01F097F900F07AF803B4FFF7F2FF08
:1001800003BC00F07DF8000009488047094800479B
:10019000FEE7FEE7FEE7FEE7FEE7FEE7FEE7FEE737
:1001A000FEE7FEE704480549054A064B7047000094
:1001B0007D130008ED000008C0040020C00A0020E4
:1001C000C0060020C00600204FF0000200B5134614
:1001D00094469646203922BFA0E80C50A0E80C5067
:1001E000B1F12001BFF4F7AF090728BFA0E80C5018
:1001F00048BF0CC05DF804EB890028BF40F8042B11
:1002000008BF704748BF20F8022B11F0804F18BF7D
:1002100000F8012B704770477047704700487047DF
:100220005C0400207546FFF7F9FFAE4605006946FD
:10023000534620F00700854618B020B5FFF7B2FFFF
:10024000BDE820404FF000064FF000074FF00008D7
:100250004FF0000B21F00701AC46ACE8C009ACE858
:10026000C009ACE8C009ACE8C0098D46704710B5BC
:100270000446AFF300802046BDE81040FFF77DBF85
:1002800001491820ABBEFEE7260002007047FEE7DA
:10029000704772B6FEE700002DE9F84FDFF8B8911D
:1002A0000024A9F1040B23460F2709F1040AABF13E
:1002B000040EC9E00125A5402A40AA427DD1674E1F
:1002C000D1F804C0ACEB0608B44532D014DCBCF164
:1002D000030F3AD009DCBCF1000F2AD0BCF1010FAA
:1002E0001CD0BCF1020F31D11DE0BCF1110F17D0B1
:1002F000BCF1120F2AD119E0B8F5881F19D006DC1D
:10030000B8F5803F15D0B8F5801F1FD111E0B8F5C2
:10031000001F0ED0B8F5041F18D10AE0CB6815E015
:10032000CB681B1D12E0CB6808330FE0CB680C33A1
:100330000CE08B682BB1012B4FF0080303D0456113
:1003400004E0042302E0056100E00023FF2A01D855
:10035000064601E000F104064FEA840501D9A5F143
:100360002005D6F8008007FA05FC28EA0C0803FAF5
:1003700005F548EA0508C6F800804D68ED0062D52D
:10038000374DAE6946F00106AE61AD6924F0030653
:1003900005F001050095334D06EB050CDCF808501F
:1003A000A607360F07FA06F825EA0805DFF8B88031
:1003B000404503D14FF0000817E044E0DFF8AC807F
:1003C000404502D14FF001080FE0DFF8A48040451E
:1003D00002D14FF0020808E0DFF89880404502D1D2
:1003E0004FF0030801E04FF0040808FA06F848EA65
:1003F0000508CCF808804D68D9F80060ED024D463C
:1004000001D5164300E096432E604D68DAF800608F
:10041000AD02554601D5164300E096432E604D6867
:10042000DBF80060AD035D4601D5164300E096435E
:100430002E604D68DEF80060ED03754601D5164369
:1004400000E096432E60641C0D682A46E5407FF468
:1004500031AFBDE8F88F0000080401400000111022
:10046000001002400000014000080140000C014063
:1004700000100140001401400AB1016170470904F5
:10048000FBE7000001488068704700000000002082
:1004900002488168027811448160704700000020A2
:1004A000074810B5016841F010010160032000F019
:1004B00075F80F2000F006F800F024F8002010BDB9
:1004C0000020024070B50D4D04464FF47A71287833
:1004D000B1FBF0F00A490968B1FBF0F000F0BCFA9A
:1004E00048B9102C07D200222146501E00F036F8E1
:1004F00000206C6070BD012070BD00000000002075
:100500000C0000200C4808B5816941F001018161AF
:10051000816901F001010091C16941F08051C1611F
:10052000C06900F0805000900448416821F0E0610B
:1005300041F00071416008BD001002400000014020
:10054000002809DB00F01F020121914040098000D2
:1005500000F1E020C0F8001170470000F0B40E4B2D
:100560001B680C46C3F30223C3F10705042D00D911
:100570000425191D072901D2002300E0DB1E0126F6
:1005800006FA05F1491E214099409E40761E16400C
:100590003143F0BC00F066BF0CED00E0064900F00E
:1005A000070208684FF6FF03184040EA0220034A9A
:1005B00010430860704700000CED00E00000FA05F1
:1005C0002DE9F0470F46050061D0434E306800F03A
:1005D0000700B84209D2306820F007003843306085
:1005E000306800F00700B84251D128683B4C8107C1
:1005F00012D5400703D5606840F4E0606060287859
:10060000000703D5606840F4605060606068A968C6
:1006100020F0F000084360602878C00728D06868A0
:10062000012810D02168022810D0890700292EDA6D
:10063000616821F0030101436160FFF723FF8046F9
:1006400041F288390DE021688903EFE78901EDE780
:10065000FFF718FFA0EB0801494502D90320BDE8C8
:10066000F0876068696800F00C00B0EB810FEFD193
:10067000306800F00700B8420BD9306820F007005E
:1006800038433060306800F00700B84201D00120E4
:10069000E5E72878400705D56068E96820F4E06060
:1006A000084360602878000706D56068296920F44F
:1006B000605040EAC100606000F018F86168084AC4
:1006C000C1F30311515CC840064908600648006840
:1006D000FFF7F8FE0020C2E70020024000100240B1
:1006E000021500080C000020040000200E4A51688A
:1006F0000E4801F00C03042B11D0082B0FD10C482D
:10070000C1F38343C903C05C0AD55168084AC1F3E9
:100710004041921E515C054A5043B0FBF1F07047D6
:1007200004494843704700000010024000127A005C
:10073000F214000800093D002DE9F84F040070D0C4
:100740002078C04DC00749D06868C0F381000128F7
:1007500007D06868C0F38100022809D16868C00327
:1007600006D52868800339D560680028E7D035E0D1
:100770006068B0F5803F0BD010B1B0F5A02F11D05C
:10078000286820F480302860286820F4802002E067
:10079000286840F480302860606890B1FFF772FEEE
:1007A00006460AE0286840F480202860F0E700BF91
:1007B000FFF768FE801B642873D828688003F7D58C
:1007C0000CE0FFF75FFE064605E000BFFFF75AFEAC
:1007D000801B6428F0D828688003F7D420789A4ECC
:1007E00080074FF001094FF0000839D5686810F014
:1007F0000C0F07D06868C0F38100022809D168682F
:10080000C00306D42868800714D52069012808D1C0
:1008100010E02069B0B1C6F80090FFF733FE07463C
:1008200005E00AE1FFF72EFEC01B0228C4D82868A5
:100830008007F7D52868616920F0F80040EAC10018
:1008400028600DE0C6F80080FFF71CFE074604E0B4
:10085000FFF718FEC01B022823D828688007F7D4AA
:10086000207800072CD57948A169D9B1C0F800904B
:10087000FFF708FE074604E0FFF704FEC01B02284E
:100880000FD8686A8007F7D571484FF4FA510068AD
:10089000B0FBF1F0009000BF0098411E0091FAD229
:1008A0000EE080E0C0F80080FFF7ECFD074604E0B2
:1008B000FFF7E8FDC01B022875D8686A8007F7D4E7
:1008C0002078400760D5E8690027C00008D4E869AF
:1008D00040F08050E861E869012700F08050009006
:1008E0005C480168C90513D40168834641F48071EE
:1008F0000160FFF7C7FD824606E000BFFFF7C2FDBB
:10090000A0EB0A0064284ED8DBF80000C005F5D53E
:10091000E06801280AD008B1052813D0286A20F021
:1009200001002862286A20F0040002E0286A40F0F2
:1009300001002862E06841F2883B98B1FFF7A2FD10
:1009400082460BE0286A40F004002862EEE700BF10
:10095000FFF798FDA0EB0A0159455AD8286A80078D
:10096000F6D50CE0FFF78EFD824605E0FFF78AFD25
:10097000A0EB0A0159454CD8286A8007F6D41FB16C
:10098000E86920F08050E861E06988B36968C1F3E4
:100990008101022944D00228C6F8608004D0FFF704
:1009A00071FD044638E034E0FFF76CFD074604E0D3
:1009B000FFF768FDC01B02282BD828688001F7D4F8
:1009C000206AB0F5803F05D16868A16820F4003046
:1009D00008436860D4E908010843696821F4741188
:1009E00008436860C6F86090FFF74CFD044606E0D7
:1009F00025E000BFFFF746FD001B022809D8286844
:100A00008001F7D51BE000BFFFF73CFD001B02286B
:100A100002D90320BDE8F88F28688001F4D40EE0E5
:100A20000128F7D06868226A00F48031914204D12D
:100A3000616A00F47010884201D00120EAE70020CA
:100A4000E8E70000001002400000424280044242F9
:100A50000C0000200070004010B5401EB0F1807FF7
:100A600001D3012010BD4FF0E02460610F21601719
:100A700000F0F8FC0020A06107202061002010BDDC
:100A80007047704770B590F83C20012A26D00124A9
:100A900080F83C40022280F83D2003685A689D6837
:100AA00022F070060A6832435A600D4B02689A427F
:100AB00008D0B2F1804F05D00A4B9A4202D00A4BBF
:100AC0009A4204D1496825F080031943916080F867
:100AD0003D40002180F83C10084670BD022070BDEA
:100AE000002C0140000400400008004010B5040044
:100AF00003D094F83D0010B107E0012010BD0020A4
:100B000084F83C00204600F01FF8022084F83D00E5
:100B1000211D206800F03AFC012084F8460084F88A
:100B20003E0084F83F0084F8400084F8410084F8D7
:100B3000420084F8430084F8440084F8450084F8B7
:100B40003D00002010BD000008B500680B49884238
:100B500012D10B48816941F40061816180690022F2
:100B600000F40060009011461920FFF7F7FCBDE883
:100B700008401920FFF7E4BC08BD0000002C01402C
:100B80000010024090F83D10012901D0012070476B
:100B9000022180F83D100168CA6842F00102CA6073
:100BA00000680B49884208D0B0F1804F05D0094950
:100BB000884202D00849884204D1816801F00701C7
:100BC000062903D0016841F001010160002070474F
:100BD000002C0140000400400008004070B50446AD
:100BE00090F83C000025012817D0012684F83C60CD
:100BF000022084F83D002068826822F0770222F407
:100C00007F4282600868502838D00DDC20284FD001
:100C100005DC90B3102811D14AE0022070BD3028C5
:100C200046D040280AD13BE060282FD070280DD054
:100C3000B0F5805F03D0B0F5005F12D0012584F8D5
:100C40003D60002084F83C00284670BDCB68D1E9A7
:100C50000121206800F0D0FB2068816841F0770115
:100C600009E0CB68D1E90121206800F0C5FB2068CC
:100C7000816841F480418160E1E719E0CA68496810
:100C8000206800F0CBFB5021206806E0CA68496864
:100C9000206800F0D4FB6021206800F0B7FBCEE7AD
:100CA000CA684968206800F0B9FB40212068F4E771
:100CB000226801461046F0E7704770B504460068A8
:100CC00001694FF00005C943890715D4C168C943BC
:100CD000890711D4E91E016101202077206880690D
:100CE0008007204602D0FFF7E7FF04E000F098F805
:100CF000204600F096F8257720680169C943490726
:100D000017D4C168C943490713D46FF004010161C6
:100D1000022020772068806910F4407F204602D0AE
:100D2000FFF7CAFF04E000F07BF8204600F079F8F6
:100D3000257720680169C943090716D4C168C943EA
:100D4000090712D46FF008010161042020772068A0
:100D5000C0698007204602D0FFF7AEFF04E000F034
:100D60005FF8204600F05DF8257720680169C943E7
:100D7000C90617D4C168C943C90613D46FF010015E
:100D80000161082020772068C06910F4407F204668
:100D900002D0FFF791FF04E000F042F8204600F097
:100DA00040F8257720680169C943C90708D1C1689F
:100DB000C943C90704D1891E0161204600F032F8F9
:100DC00020680169C943090609D4C168C9430906F5
:100DD00005D46FF0800101612046FFF751FE2068C5
:100DE0000169C943490609D4C168C943490605D404
:100DF0006FF040010161204600F01CF82068016995
:100E0000C94389060BD4C168C943890607D46FF06A
:100E1000200101612046BDE87040FFF732BE70BD81
:100E20007047704702480188491C018070470000E4
:100E3000100000207047FEE770B586B00024184807
:100E40000094019402940394816941F0100181613E
:100E5000816901F010010491816941F020018161F3
:100E6000816901F020010491816941F004018161EF
:100E700080690C4E00F004004FF4005504900022ED
:100E800029463046FFF7F8FA01200095CDE9010424
:100E90000220039069463046FFF7FEF906B070BDA8
:100EA000001002400010014010B586B00024184820
:100EB00000940194029403940494144905940160ED
:100EC00048F69F41C0E9011440F2CF71C0E9031414
:100ED00044618461FFF70AFE08B1FFF7DAF94FF4C5
:100EE0008050009069460A48FFF778FE08B1FFF786
:100EF000D0F9049404A906480594FFF7C3FD00281F
:100F000001D0FFF7C6F906B010BD0000002C01406B
:100F100014000020FEE7FEE710B50021074C0A464A
:100F2000002004EBC1131A54401CC0B28028FAD32D
:100F3000491CC9B20829F3D310BD00005C00002091
:100F4000F0B50B4424E0044685181DE07F2C19D829
:100F5000002917DB3F2915DCCE1701EB56764FEA47
:100F6000E60C0D4F26F0070607EBCC172744A1EB44
:100F7000060E97F800C0012606FA0EF62CEA060CBB
:100F800087F800C0641C24B2A542DFDC491C09B20A
:100F90008B42D8DCF0BD00005C00002000B585B0BD
:100FA00000214FF47A720020401C9042FCD3491C6F
:100FB0009142F8D31048816941F00801816180694C
:100FC000694600F0080004904FF440700090112032
:100FD0000190032003900948FFF75EF9012000F01B
:100FE00061F9012000F066F9012000F05BF90120B1
:100FF00000F060F905B000BD00100240000C014097
:1010000070B500240646802525FA04F0304000D053
:10101000012000F04FF9012000F044F9002000F019
:1010200041F9641CE4B2082CEED3012000F03AF937
:10103000BDE87040002000F035B910B5012000F087
:1010400039F9012000F02EF9002000F033F9BDE855
:101050001040002000F026B910B5002000F02AF959
:10106000012000F01FF9BDE81040012000F022B976
:1010700010B5FFF793FFAE2000F024F9D52000F063
:1010800021F9802000F01EF9A82000F01BF93F2074
:1010900000F018F9D32000F015F9002000F012F943
:1010A000402000F00FF9A12000F00CF9C82000F05A
:1010B00009F9DA2000F006F9122000F003F9812086
:1010C00000F000F9CF2000F0FDF8D92000F0FAF888
:1010D000F12000F0F7F8DB2000F0F4F8302000F009
:1010E000F1F8A42000F0EEF8A62000F0EBF88D2037
:1010F00000F0E8F8142000F0E5F8AF2000F0E2F886
:10110000FFF70AFFBDE8104000F0B8B80246012022
:1011100000E05043491EFCD2704710B50C4640F029
:10112000B00000F0CFF8102040EA141000F0CAF828
:1011300004F00F00BDE8104000F0C4B808B5082B5B
:101140000DD0062B0AD10A4B02EB420203EB4202FE
:10115000C03A00920823062200F00EF808BD054BA5
:1011600003EB0212A2F50072102300920822F3E7AB
:10117000021B0008121500082DE9F04F1F46164605
:101180000D4682460024FFF7DBFE7F1EF81707EBB3
:1011900050700121DFF898B001EBE00743E0002038
:1011A0003DE000BF0AEB00037F2B36D8E91705EBC3
:1011B0005171CA1021F00701691A002D03DA521E7D
:1011C000083112B209B202EB0409B9F1070F0ED8C7
:1011D000099A04FB06F802440BEBC91E18F802201A
:1011E0001EF803C08A404CEA020C0EF803C009F155
:1011F0000102072A11D80BEBC91202EB0308099A66
:1012000004FB06FC024498F880301CF80220C1F16F
:101210000801CA40134388F88030401CC0B2B04275
:10122000C0D3641CE4B2A742B9DCBDE8F08F000073
:101230005C0000202DE9F04700241D4690468A46B8
:1012400081460A27089E14E0291B0A20491EFFF741
:101250005DFFB8FBF0F0B0FBF7F107FB110204FBF8
:10126000069000B2334651463032FFF767FF641CE8
:10127000E4B2AC42E8D3BDE8F087000070B5084D99
:10128000002400212046FFF748FF05EBC410802111
:1012900000F029F8641CE4B2082CF2D370BD000001
:1012A0005C00002002464FF480710148FFF7E4B86B
:1012B000000C014002464FF400710148FFF7DCB812
:1012C000000C014010B50446FFF7B7FE7820FFF789
:1012D00097FE0020FFF794FE2046FFF791FEBDE841
:1012E0001040FFF7B9BE70B50D460646FFF7A5FEE4
:1012F0007820FFF785FE4020FFF782FE002404E0FF
:10130000305DFFF77DFE641CE4B2AC42F8D3BDE86B
:101310007040FFF7A1BE70477047FFF7B9B830B50E
:101320008FB028216846FEF74FFF14210AA8FEF768
:101330004BFF01210804CDE900100024029402258E
:101340000491CDE907504FF4E01009906846FFF78B
:10135000F3F908B172B6FEE70F20CDE90A054FF4A4
:101360008060CDE90C4002210AA80E94FFF728F90D
:10137000002801D072B6FEE70FB030BD7047000004
:101380000148FFF79ABC000014000020F0B5026885
:10139000164B174C174D4FF08047984205D0B84276
:1013A00003D0A04201D0A84203D122F070064A68BF
:1013B0003243984205D0B84203D0A04201D0A8429F
:1013C00003D122F44074CA6822434C6922F080029F
:1013D000224302608A68C2620A688262984201D12E
:1013E0000969016301214161F0BD0000002C014049
:1013F000000400400008004010B5846842EA03225F
:1014000024F47F440A432243826010BD826822F0A4
:1014100070020A4342F007018160704710B5036A09
:10142000046A24F001040462846924F0F00444EAAC
:10143000021423F00A020A438461026210BD10B54F
:10144000036A046A24F010040462846923F0A00390
:1014500024F4704444EA023243EA011182610162D9
:1014600010BDFEE70907090E002804DB00F1E020AB
:1014700080F80014704700F00F0000F1E02080F8C1
:10148000141D704708B50820009005480523002169
:1014900002880A20FFF7CEFEBDE80840FFF7EEBE47
:1014A00010000020FEF7FCFFFFF739FFFFF7C4FC38
:1014B000FFF7FAFC00F004F8FFF7E4FFFCE7000098
:1014C00010B5FFF7D5FD09496FF001000968086103
:1014D0000648FFF757FB0021082369220846FFF75B
:1014E0002DFEBDE81040FFF7C9BE0000140000202B
:1014F000010202030405060708090A0B0C0D0E0F72
:1015000010100000000000000000010203040607A4
:1015100008090000000000000000000000000000BA
:101520000000000000F80000000000000033300060
:10153000000000160E00160E000000000000000063
:10154000000040C07840C0784000043F04043F04DD
:101550000400007088FC08300000001820FF211EE5
:101560000000F008F000E018000000211C031E211C
:101570001E0000F00888700000001E212324192797
:101580002110000000160E00000000000000000006
:101590000000000000E0180402000000000718200E
:1015A000400000020418E00000000040201807007E
:1015B0000000404080F0804040000202010F010224
:1015C0000200000000F0000000000101011F010105
:1015D0000100000000000000000000B070000000EA
:1015E00000000000000000000000000101010101F6
:1015F0000101000000000000000000303000000089
:10160000000000000000806018040060180601005F
:10161000000000E010080810E000000F102020106B
:101620000F00001010F8000000000020203F2020D4
:10163000000000700808088870000030282422216B
:101640003000003008888848300000182020201121
:101650000E000000C02010F8000000070424243F02
:10166000240000F8088888080800001921202011AB
:101670000E0000E0108888180000000F11202011D3
:101680000E0000380808C83808000000003F0000BD
:1016900000000070880808887000001C22212122A8
:1016A0001C0000E010080810E000000031222211A8
:1016B0000F00000000C0C00000000000003030003B
:1016C0000000000000C0C0000000000080B07000FA
:1016D00000000000804020100800000102040810F3
:1016E0002000404040404040400004040404040402
:1016F00004000008102040800000002010080402B0
:101700000100007048080808F000000000303601B1
:101710000000C030C828E810E00007182724231470
:101720000B000000C038E0000000203C230202272C
:10173000382008F8888888700000203F2020201179
:101740000E00C030080808083800071820202010B4
:10175000080008F808080810E000203F20202010AA
:101760000F0008F88888E8081000203F2020232078
:10177000180008F88888E8081000203F20000300BF
:101780000000C03008080838000007182020221E7A
:10179000020008F808000008F808203F2101012194
:1017A0003F20000808F8080800000020203F202003
:1017B000000000000808F8080800C08080807F0052
:1017C000000008F888C028180800203F20012638AB
:1017D000200008F8080000000000203F2020202002
:1017E000300008F8F800F8F80800203F003F003FFC
:1017F000200008F830C00008F808203F2000071833
:101800003F00E01008080810E0000F102020201012
:101810000F0008F808080808F000203F2101010126
:101820000000E01008080810E0000F1824243850C9
:101830004F0008F8888888887000203F2000030C3B
:101840003020007088080808380000382021212244
:101850001C00180808F8080818000000203F2000A5
:10186000000008F808000008F808001F20202020C9
:101870001F000878880000C83808000007380E01EB
:101880000000F80800F80008F800033C0700073CD7
:101890000300081868808068180820302C03032C87
:1018A00030200838C800C83808000000203F200059
:1018B000000010080808C838080020382621202019
:1018C0001800000000FE020202000000007F4040FD
:1018D0004000000C30C0000000000000000106388D
:1018E000C00000020202FE000000004040407F00F5
:1018F0000000002010080408102000000000000074
:1019000000000000000000000000808080808080D7
:1019100080800002040800000000000000000000B9
:101920000000000080808080000000192422222214
:101930003F2008F8008080000000003F11202011A7
:101940000E000000008080800000000E112020208A
:101950001100000000808088F800000E1120201087
:101960003F200000808080800000001F2222222271
:101970001300008080F0888888180020203F2020F5
:1019800000000000808080808000006B949494931D
:10199000600008F8008080800000203F21000020C7
:1019A0003F2000809898000000000020203F202069
:1019B0000000000000809898000000C08080807FB8
:1019C000000008F8000080808000203F24022D30B5
:1019D0002000000808F8000000000020203F202020
:1019E00000008080808080808000203F20003F2099
:1019F000003F008080008080000000203F21002008
:101A00003F200000808080800000001F20202020D8
:101A10001F00808000808000000080FFA120201136
:101A20000E000000008080808000000E112020A0A9
:101A3000FF80808080008080800020203F21200067
:101A40000100000080808080800000332424242452
:101A50001900008080E0808000000000001F20202E
:101A600000008080000000808000001F20202010E7
:101A70003F20808080000080808000010E300806BA
:101A8000010080800080008080800F300C030C30CB
:101A90000F0000808000808080000020312E0E31F9
:101AA0002000808080000080808080818E701806F9
:101AB000010000808080808080000021302C222165
:101AC000300000000000807C020200000000003FA7
:101AD000404000000000FF00000000000000FF0088
:101AE00000000002027C800000000040403F000037
:101AF00000000080404080000080000000000001E5
:101B000001000000000000000000002F00000000A5
:101B10000700070000147F147F1400242A7F2A1274
:101B20000023130864620036495522500000000764
:101B3000000000001C224100000041221C00001493
:101B4000083E08140008083E0808000000A06000D5
:101B50000008080808080000606000000020100865
:101B60000402003E5149453E0000427F40000042D1
:101B700061514946002141454B31001814127F1034
:101B8000002745454539003C4A4949300001710963
:101B9000050300364949493600064949291E000017
:101BA00036360000000056360000000814224100BE
:101BB00000141414141400004122140800020151EE
:101BC0000906003E4955592E007C1211127C007FF7
:101BD00049494936003E41414122007F4141221C92
:101BE000007F49494941007F09090901003E4149F7
:101BF000497A007F0808087F0000417F41000020EB
:101C000040413F01007F08142241007F4040404096
:101C1000007F020C027F007F0408107F003E4141DC
:101C2000413E007F09090906003E4151215E007FC7
:101C3000091929460046494949310001017F01013E
:101C4000003F4040403F001F2040201F003F4038E1
:101C5000403F006314081463000708700807006120
:101C60005149454300007F41410000020408102013
:101C7000000041417F000004020102040040404096
:101C80004040000001020400002054545478007FBA
:101C90004844443800384444442000384444487F91
:101CA00000385454541800087E0901020018A4A4F6
:101CB000A47C007F080404780000447D40000040BC
:101CC00080847D00007F102844000000417F400098
:101CD000007C04180478007C08040478003844442C
:101CE000443800FC242424180018242418FC007C08
:101CF0000804040800485454542000043F44402081
:101D0000003C4040207C001C2040201C003C403017
:101D1000403C004428102844001CA0A0A07C0044A3
:101D200064544C440000087F41000000007F000024
:101D30000000417F08000008040810085C1D00082E
:101D4000000000201400000028010008701D000899
:101D500014000020AC0A000044010008010000004B
:101D600010000000000000000024F400000000004B
:04000005080000ED02
:00000001FF
