:020000040800F2
:10000000D00A0020890100081311000867100008B9
:1000100011110008D30200083D180008000000007C
:100020000000000000000000000000004115000872
:10003000D5020008000000003F1500084315000825
:10004000A3010008A3010008A3010008A301000800
:10005000A3010008A3010008A3010008A3010008F0
:10006000A3010008A3010008A3010008A3010008E0
:10007000A3010008A3010008A3010008A3010008D0
:10008000A3010008A3010008A3010008A3010008C0
:10009000A3010008A3010008A3010008A3010008B0
:1000A000A3010008A3010008A3010008A3010008A0
:1000B000A3010008A3010008A3010008A301000890
:1000C000A3010008A3010008A3010008A301000880
:1000D000A301000831180008A3010008A3010008CB
:1000E000A3010008A3010008A301000800F002F822
:1000F00000F03AF80AA090E8000C82448344AAF188
:100100000107DA4501D100F02FF8AFF2090EBAE885
:100110000F0013F0010F18BFFB1A43F0010318473B
:10012000E01F000000200000103A24BF78C878C10A
:10013000FAD8520724BF30C830C144BF04680C60ED
:10014000704700000023002400250026103A28BF35
:1001500078C1FBD8520728BF30C148BF0B60704739
:100160001FB51FBD10B510BD00F07EF81146FFF79A
:10017000F7FF01F076FB00F09CF803B4FFF7F2FF05
:1001800003BC00F09FF80000094880470948004779
:10019000FEE7FEE7FEE7FEE7FEE7FEE7FEE7FEE737
:1001A000FEE7FEE704480549054A064B7047000094
:1001B000A5150008ED000008D0040020D00A00209A
:1001C000D0060020D00600204FF000020429C0F025
:1001D000128010F0030C00F01B80CCF1040CBCF179
:1001E000020F18BF00F8012BA8BF20F8022BA1EBCB
:1001F0000C0100F00DB85FEAC17C24BF00F8012BB0
:1002000000F8012B48BF00F8012B70474FF00002A7
:1002100000B5134694469646203922BFA0E80C50FC
:10022000A0E80C50B1F12001BFF4F7AF090728BFD7
:10023000A0E80C5048BF0CC05DF804EB890028BF53
:1002400040F8042B08BF704748BF20F8022B11F07C
:10025000804F18BF00F8012B7047704770477047F8
:10026000004870476C0400207546FFF7F9FFAE4662
:1002700005006946534620F00700854618B020B5B2
:10028000FFF790FFBDE820404FF000064FF0000759
:100290004FF000084FF0000B21F00701AC46ACE82E
:1002A000C009ACE8C009ACE8C009ACE8C0098D469B
:1002B000704710B50446AFF300802046BDE81040FB
:1002C000FFF75BBF01491820ABBEFEE72600020026
:1002D0007047FEE7704772B6FEE710B590F8211040
:1002E0000022022905D00421816380F8202001200A
:1002F00010BD01680B6823F00E030B6001680B68EA
:1003000023F001030B6090F84030C46B012101FA27
:1003100003F3636080F8211080F82020104610BDA0
:1003200010B590F821100024022903D00421816324
:1003300001243DE001680A6822F00E020A600168AB
:100340000A6822F001020A601A4A0168914201D14A
:10035000012121E0174A1432914201D110211BE002
:10036000144A2832914201D1891515E0114A3C32D4
:10037000914201D189140FE00E4A5032914202D1CC
:100380004FF4803108E00B4A6432914202D14FF4BD
:10039000801101E04FF08071064A083A5160012156
:1003A00080F82110002180F82010416B01B18847AE
:1003B000204610BD080002402DE9F84FDFF8B89143
:1003C0000024A9F1040B23460F2709F1040AABF11D
:1003D000040EC9E00125A5402A40AA427DD1674EFE
:1003E000D1F804C0ACEB0608B44532D014DCBCF143
:1003F000030F3AD009DCBCF1000F2AD0BCF1010F89
:100400001CD0BCF1020F31D11DE0BCF1110F17D08F
:10041000BCF1120F2AD119E0B8F5881F19D006DCFB
:10042000B8F5803F15D0B8F5801F1FD111E0B8F5A1
:10043000001F0ED0B8F5041F18D10AE0CB6815E0F4
:10044000CB681B1D12E0CB6808330FE0CB680C3380
:100450000CE08B682BB1012B4FF0080303D04561F2
:1004600004E0042302E0056100E00023FF2A01D834
:10047000064601E000F104064FEA840501D9A5F122
:100480002005D6F8008007FA05FC28EA0C0803FAD4
:1004900005F548EA0508C6F800804D68ED0062D50C
:1004A000374DAE6946F00106AE61AD6924F0030632
:1004B00005F001050095334D06EB050CDCF80850FE
:1004C000A607360F07FA06F825EA0805DFF8B88010
:1004D000404503D14FF0000817E044E0DFF8AC805E
:1004E000404502D14FF001080FE0DFF8A4804045FD
:1004F00002D14FF0020808E0DFF89880404502D1B1
:100500004FF0030801E04FF0040808FA06F848EA43
:100510000508CCF808804D68D9F80060ED024D461A
:1005200001D5164300E096432E604D68DAF800606E
:10053000AD02554601D5164300E096432E604D6846
:10054000DBF80060AD035D4601D5164300E096433D
:100550002E604D68DEF80060ED03754601D5164348
:1005600000E096432E60641C0D682A46E5407FF447
:1005700031AFBDE8F88F0000080401400000111001
:10058000001002400000014000080140000C014042
:1005900000100140001401400AB1016170470904D4
:1005A000FBE7000001488068704700000000002061
:1005B0000248816802781144816070470000002081
:1005C000074810B5016841F010010160032000F0F8
:1005D00075F80F2000F006F800F024F8002010BD98
:1005E0000020024070B50D4D04464FF47A71287812
:1005F000B1FBF0F00A490968B1FBF0F000F0DCFA59
:1006000048B9102C07D200222146501E00F036F8BF
:1006100000206C6070BD012070BD00000000002053
:100620000C0000200C4808B5816941F0010181618E
:10063000816901F001010091C16941F08051C161FE
:10064000C06900F0805000900448416821F0E061EA
:1006500041F00071416008BD0010024000000140FF
:10066000002809DB00F01F020121914040098000B1
:1006700000F1E020C0F8001170470000F0B40E4B0C
:100680001B680C46C3F30223C3F10705042D00D9F0
:100690000425191D072901D2002300E0DB1E0126D5
:1006A00006FA05F1491E214099409E40761E1640EB
:1006B0003143F0BC01F0C3B80CED00E0064900F096
:1006C000070208684FF6FF03184040EA0220034A79
:1006D00010430860704700000CED00E00000FA05D0
:1006E0002DE9F0470F46050061D0434E306800F019
:1006F0000700B84209D2306820F007003843306064
:10070000306800F00700B84251D128683B4C81079F
:1007100012D5400703D5606840F4E0606060287837
:10072000000703D5606840F4605060606068A968A5
:1007300020F0F000084360602878C00728D068687F
:10074000012810D02168022810D0890700292EDA4C
:10075000616821F0030101436160FFF723FF8046D8
:1007600041F288390DE021688903EFE78901EDE75F
:10077000FFF718FFA0EB0801494502D90320BDE8A7
:10078000F0876068696800F00C00B0EB810FEFD172
:10079000306800F00700B8420BD9306820F007003D
:1007A00038433060306800F00700B84201D00120C3
:1007B000E5E72878400705D56068E96820F4E0603F
:1007C000084360602878000706D56068296920F42E
:1007D000605040EAC100606000F038F86168084A83
:1007E000C1F30311515CC84006490860064800681F
:1007F000FFF7F8FE0020C2E7002002400010024090
:10080000BE1800080C000020040000200448054920
:1008100000684968044AC1F30221515CC84070472E
:100820000C00002000100240CE18000804480549C2
:1008300000684968044AC1F3C221515CC84070474E
:100840000C00002000100240CE1800080E4A51682B
:100850000E4801F00C03042B11D0082B0FD10C48CB
:10086000C1F38343C903C05C0AD55168084AC1F388
:100870004041921E515C054A5043B0FBF1F0704775
:1008800004494843704700000010024000127A00FB
:10089000AE18000800093D002DE9F84F040070D0A3
:1008A0002078C04DC00749D06868C0F38100012896
:1008B00007D06868C0F38100022809D16868C003C6
:1008C00006D52868800339D560680028E7D035E070
:1008D0006068B0F5803F0BD010B1B0F5A02F11D0FB
:1008E000286820F480302860286820F4802002E006
:1008F000286840F480302860606890B1FFF752FEAD
:1009000006460AE0286840F480202860F0E700BF2F
:10091000FFF748FE801B642873D828688003F7D54A
:100920000CE0FFF73FFE064605E000BFFFF73AFE8A
:10093000801B6428F0D828688003F7D420789A4E6A
:1009400080074FF001094FF0000839D5686810F0B2
:100950000C0F07D06868C0F38100022809D16868CD
:10096000C00306D42868800714D52069012808D15F
:1009700010E02069B0B1C6F80090FFF713FE0746FB
:1009800005E00AE1FFF70EFEC01B0228C4D8286864
:100990008007F7D52868616920F0F80040EAC100B7
:1009A00028600DE0C6F80080FFF7FCFD074604E074
:1009B000FFF7F8FDC01B022823D828688007F7D46A
:1009C000207800072CD57948A169D9B1C0F80090EA
:1009D000FFF7E8FD074604E0FFF7E4FDC01B02282F
:1009E0000FD8686A8007F7D571484FF4FA5100684C
:1009F000B0FBF1F0009000BF0098411E0091FAD2C8
:100A00000EE080E0C0F80080FFF7CCFD074604E070
:100A1000FFF7C8FDC01B022875D8686A8007F7D4A5
:100A20002078400760D5E8690027C00008D4E8694D
:100A300040F08050E861E869012700F080500090A4
:100A40005C480168C90513D40168834641F480718C
:100A50000160FFF7A7FD824606E000BFFFF7A2FD99
:100A6000A0EB0A0064284ED8DBF80000C005F5D5DD
:100A7000E06801280AD008B1052813D0286A20F0C0
:100A800001002862286A20F0040002E0286A40F091
:100A900001002862E06841F2883B98B1FFF782FDCF
:100AA00082460BE0286A40F004002862EEE700BFAF
:100AB000FFF778FDA0EB0A0159455AD8286A80074C
:100AC000F6D50CE0FFF76EFD824605E0FFF76AFD04
:100AD000A0EB0A0159454CD8286A8007F6D41FB10B
:100AE000E86920F08050E861E06988B36968C1F383
:100AF0008101022944D00228C6F8608004D0FFF7A3
:100B000051FD044638E034E0FFF74CFD074604E0B1
:100B1000FFF748FDC01B02282BD828688001F7D4B6
:100B2000206AB0F5803F05D16868A16820F40030E4
:100B300008436860D4E908010843696821F4741126
:100B400008436860C6F86090FFF72CFD044606E095
:100B500025E000BFFFF726FD001B022809D8286802
:100B60008001F7D51BE000BFFFF71CFD001B02282A
:100B700002D90320BDE8F88F28688001F4D40EE084
:100B80000128F7D06868226A00F48031914204D1CC
:100B9000616A00F47010884201D00120EAE7002069
:100BA000E8E7000000100240000042428004424298
:100BB0000C0000200070004010B5401EB0F1807F96
:100BC00001D3012010BD4FF0E02460610F216017B8
:100BD00000F035FE0020A06107202061002010BD3C
:100BE00018B5034690F84200202801D0022018BD15
:100BF00061B15AB10120186300205863184600F013
:100C0000BFFD0028F3D1196B012901D0012018BDC7
:100C100019680A684968009119680C3151E8002F79
:100C200042F0100241E80024002CF5D118BD00006C
:100C300008B532220D490E48FFF7D2FFFF230122EB
:100C40000A490B4800F0C1F9062000900748032329
:100C5000002102780A2000F0EBFB00F023FCBDE845
:100C6000084014210148FFF7AFBA000058040020E3
:100C70001000002070470000F8B5016804460868BD
:100C8000CA684B6910F00F0F4FF0000559D003F000
:100C9000010602F49077374365D0C10705D0D1052E
:100CA00003D5616C41F001016164410705D5D907A5
:100CB00003D0616C41F002016164810705D5D90759
:100CC00003D0616C41F004016164010707D502F0B3
:100CD0002001314303D0616C41F008016164616C13
:100CE00000293AD0800604D5900602D5204600F0AF
:100CF00089FC20684069616CC0F38010090700D44A
:100D000060B3204600F057FC20684069400621D5BA
:100D10002068143050E8001F21F0400140E8001224
:100D2000002AF5D1E06BA8B16D494163E06BFFF794
:100D3000F7FA002811D0E06B416B01B0BDE8F0403C
:100D4000084783060FD593060DD52046BDE8F84029
:100D500000F058BC2046FFF78DFFF8BD2046FFF796
:100D600089FF6564F8BD266B2023012E7CD1C60661
:100D70007AD5D60678D508684868009048694FF05B
:100D80000206400640D5E16B086840680004000C8C
:100D9000E8D0A28D8242E5D9E085886920282DD04F
:100DA00020680C3050E8001F21F4807140E80012E8
:100DB000002AF5D12068143050E8001F21F001010D
:100DC00040E80012002AF5D12068143050E8001FD6
:100DD00021F0400140E80012002AF5D184F84230A9
:100DE000256320680C3050E8001F21F0100140E816
:100DF0000012002AF5D1E06BFFF76FFA6663A08D51
:100E0000E18D401A81B22AE0A08DE18D401A81B2B5
:100E1000E08D0028A6D00029A4D022680C3252E828
:100E2000000F20F4907042E80007002FF5D12068F1
:100E3000143050E8002F22F0010240E80027002F74
:100E4000F5D184F84230256320680C3050E8002F3B
:100E500022F0100240E80023002BF5D16663204603
:100E6000FFF7E6FEF8BDFFE705062BD5150629D5E9
:100E700094F841002128F5D1A068B0F5805F01D138
:100E80002069B0B1206A411C216221680078486065
:100E9000E08C401E0004000CE084E3D12068C168AF
:100EA00021F08001C1602068C16841F04001C1604B
:100EB000D8E7206A0088C0F308004860206A801CD8
:100EC0002062E5E74006CDD55006CBD5CA6820465E
:100ED00022F04002CA6084F8413000F0C3F8C1E754
:100EE000A715000870B5040004D094F8410000254F
:100EF00010B106E0012070BD84F84050204600F09B
:100F000023F8242084F841002068C16821F40051AE
:100F1000C160204600F0D8FB2068016921F49041AF
:100F200001612068416921F02A0141612068C1689E
:100F300041F40051C1606564202084F8410084F8C8
:100F400042006563002070BD30B585B00024009478
:100F50000194029403940068184988422CD11848DF
:100F6000816941F480418161816901F4804104918A
:100F7000816941F0040181618069124D00F0040033
:100F800004904FF400700090022001900320039021
:100F900069462846FFF710FA2815CDE9000469468E
:100FA00028460294FFF708FA002211462520FFF791
:100FB00065FB2520FFF754FB05B030BD003801402C
:100FC000001002400008014070472DE9F843044634
:100FD00090F841001F4616460D46202802D00220F8
:100FE000BDE8F8837DB176B100206064212084F8EB
:100FF0004100FFF7D7FAA6848046E684A068B0F5E2
:10100000805F02D003E00120EAE7206910B12E469C
:1010100000250EE000260CE08021204600F0CBFBEE
:10102000A0B9AEB116F8010B21684860E08C401EF3
:10103000E084E08C43464FF0000200970028EBD19B
:101040004FF04001204600F0B6FB30B10320C7E767
:1010500035F8020BC0F30800E6E7202084F84100D1
:101060000020BDE77047FEE770B586B00024184841
:101070000094019402940394816941F0100181610C
:10108000816901F010010491816941F020018161C1
:10109000816901F020010491816941F004018161BD
:1010A00080690C4E00F004004FF4005504900022BB
:1010B00029463046FFF770FA01200095CDE901047A
:1010C0000220039069463046FFF776F906B070BDFE
:1010D00000100240001001400C4810B50A490160A0
:1010E0004FF416514160002181600C22C160C0E9BB
:1010F00004128161C161FFF7F5FE002803D0BDE84D
:101100001040FFF7E8B810BD003801401000002083
:10111000FEE7FEE710B50021074C0A46002004EB6D
:10112000C1131A54401CC0B28028FAD3491CC9B25A
:101130000829F3D310BD000058000020F0B50B447F
:1011400024E0044685181DE07F2C19D8002917DB00
:101150003F2915DCCE1701EB56764FEAE60C0D4F12
:1011600026F0070607EBCC172744A1EB060E97F8ED
:1011700000C0012606FA0EF62CEA060C87F800C01D
:10118000641C24B2A542DFDC491C09B28B42D8DCC6
:10119000F0BD00005800002000B585B000214FF4DC
:1011A0007A720020401C9042FCD3491C9142F8D333
:1011B0001048816941F0080181618069694600F049
:1011C000080004904FF4407000901120019003201B
:1011D00003900948FFF7F0F8012000F077F90120AB
:1011E00000F07CF9012000F071F9012000F076F99F
:1011F00005B000BD00100240000C014070B5002495
:101200000646802525FA04F0304000D0012000F089
:1012100065F9012000F05AF9002000F057F9641C2C
:10122000E4B2082CEED3012000F050F9BDE8704084
:10123000002000F04BB910B5012000F04FF901205B
:1012400000F044F9002000F049F9BDE8104000200A
:1012500000F03CB910B5002000F040F9012000F08A
:1012600035F9BDE81040012000F038B910B5FFF79E
:1012700093FFAE2000F03AF9D52000F037F9802036
:1012800000F034F9A82000F031F93F2000F02EF9E9
:10129000D32000F02BF9002000F028F9402000F0C6
:1012A00025F9A12000F022F9C82000F01FF9DA206A
:1012B00000F01CF9122000F019F9812000F016F955
:1012C000CF2000F013F9D92000F010F9F12000F040
:1012D0000DF9DB2000F00AF9302000F007F9A42016
:1012E00000F004F9A62000F001F98D2000F0FEF8CE
:1012F000142000F0FBF8AF2000F0F8F8FFF70AFF29
:10130000BDE8104000F0CEB80246012000E0504396
:10131000491EFCD2704710B50C4640F0B00000F0FA
:10132000E5F8102040EA141000F0E0F804F00F0097
:10133000BDE8104000F0DAB808B5082B0DD0062B38
:101340000AD10A4B02EB420203EB4202C03A00927E
:101350000823062200F00EF808BD054B03EB02122D
:10136000A2F50072102300920822F3E7C61E0008BF
:10137000D61800082DE9F04F1F4616460D46824646
:101380000024FFF7DBFE7F1EF81707EB50700121EA
:10139000DFF898B001EBE00743E000203DE000BF3C
:1013A0000AEB00037F2B36D8E91705EB5171CA1001
:1013B00021F00701691A002D03DA521E083112B21A
:1013C00009B202EB0409B9F1070F0ED8099A04FB20
:1013D00006F802440BEBC91E18F802201EF803C0E1
:1013E0008A404CEA020C0EF803C009F10102072AF8
:1013F00011D80BEBC91202EB0308099A04FB06FC97
:10140000024498F880301CF80220C1F10801CA405B
:10141000134388F88030401CC0B2B042C0D3641C73
:10142000E4B2A742B9DCBDE8F08F0000580000200C
:101430002DE9F04700241D4690468A4681460A273A
:10144000089E14E0291B0A20491EFFF75DFFB8FB28
:10145000F0F0B0FBF7F107FB110204FB069000B2BD
:10146000334651463032FFF767FF641CE4B2AC42AA
:10147000E8D3BDE8F0872DE9F0411E4615468846C1
:101480000746002408E004FB067000B233464146DC
:10149000FFF752FF641CE4B22A5D002AF3D1BDE8D5
:1014A000F081000070B5084D002400212046FFF7B0
:1014B00032FF05EBC410802100F029F8641CE4B26F
:1014C000082CF2D370BD00005800002002464FF4F3
:1014D00080710148FFF760B8000C014002464FF4EC
:1014E00000710148FFF758B8000C014010B50446E0
:1014F000FFF7A1FE7820FFF781FE0020FFF77EFEB8
:101500002046FFF77BFEBDE81040FFF7A3BE70B595
:101510000D460646FFF78FFE7820FFF76FFE40204E
:10152000FFF76CFE002404E0305DFFF767FE641CEB
:10153000E4B2AC42F8D3BDE87040FFF78BBE704711
:101540007047FFF735B830B58FB028216846FEF7F1
:101550005DFE14210AA8FEF759FE01210804CDE919
:1015600000100024029402250491CDE907504FF4A5
:10157000E01009906846FFF78FF908B172B6FEE7F0
:101580000F20CDE90A054FF48060CDE90C4002211F
:101590000AA80E94FFF7A4F8002801D072B6FEE75F
:1015A0000FB030BD704710B5406A0021C185C184BD
:1015B000FFF760FB10BD01680C3151E8002F22F4E9
:1015C000907241E80023002BF5D10168143151E8F5
:1015D000002F22F0010241E80023002BF5D1016B1E
:1015E000012909D101680C3151E8002F22F01002C5
:1015F00041E80023002BF5D1202180F84210002182
:101600000163704708B590F84210222901D00220EA
:1016100008BD82684FF480539A4201D1016921B11B
:10162000816A9A421BD04AB10AE00268816A526814
:10163000C2F308020A80816A891C08E0026972B15B
:101640000268526802F07F020A70816A491C816256
:10165000C18D491E0904090CC18503D01BE0026835
:101660005268F1E70168CA6822F02002CA60016886
:10167000CA6822F48072CA6001684A6922F00102D5
:101680004A61202180F8421000214163026B012A47
:1016900003D0FFF799FC002008BD016301680C31FD
:1016A00051E8002F22F0100241E80023002BF5D171
:1016B00001680A68D20602D50A6849680091818DDE
:1016C000FFF7B6FAE7E7000070B504460068016965
:1016D000E26821F44051114301612169A068084387
:1016E000616908432168CA6841F20C639A43024366
:1016F000CA6020684169A26921F4407111434161C7
:101700001E492068884202D1FFF790F801E0FFF7F8
:101710007DF800EBC00101EB0012606864218000DD
:10172000B2FBF0F3B3FBF1F36FF018067343B2FBB7
:10173000F0F5B2FBF0F605EB8305322303EB05155C
:10174000B5FBF1F5B6FBF1F605F0F00505EB061576
:10175000B2FBF0F6B2FBF0F0B0FBF1F06FF0180264
:10176000504306EB800003EB0010B0FBF1F0216862
:1017700000F00F002844886070BD00000038014070
:1017800081628285C28500214164222180F8421055
:10179000016921B10168CA6842F48072CA600168B7
:1017A0004A6942F001024A610068C16841F02001C3
:1017B000C160002070472DE9F041984617460E465B
:1017C0000446069D27E0681C25D02DB1FEF7EAFEF1
:1017D000A0EB0800A8421ED920680C3050E8001F7A
:1017E00021F4D07140E80012002AF5D120681430AD
:1017F00050E8001F21F0010140E80012002AF5D155
:10180000202084F8410084F84200002084F8400041
:101810000320BDE8F0812068006836EA000004D0AB
:101820000020B842CFD00020F3E70120F9E7000004
:101830000148FFF721BA000010000020FEE7090769
:10184000090E002804DB00F1E02080F80014704746
:1018500000F00F0000F1E02080F8141D7047FFF742
:1018600021BEFEF7ADFEFFF76EFEFFF7FDFBFFF7B3
:1018700033FC00F003F8FFF7F2FFFCE710B5FFF7C9
:10188000F5FC0021062306A20846FFF7F4FDFFF74A
:1018900009FEBDE81040322202490348FFF7A0B913
:1018A00072783A0058040020100000200102020360
:1018B0000405060708090A0B0C0D0E0F1010000096
:1018C00000000000000001020304060708090000F0
:1018D00000000102030400000000000000000000FE
:1018E000000000000000000000F800000000000000
:1018F00000333000000000160E00160E000000003D
:1019000000000000000040C07840C0784000043F64
:1019100004043F040400007088FC08300000001834
:1019200020FF211E0000F008F000E0180000002158
:101930001C031E211E0000F00888700000001E21FC
:10194000232419272110000000160E0000000000BB
:10195000000000000000000000E018040200000089
:1019600000071820400000020418E00000000040BA
:10197000201807000000404080F080404000020234
:10198000010F01020200000000F000000000010150
:10199000011F01010100000000000000000000B074
:1019A00070000000000000000000000000000001C6
:1019B00001010101010100000000000000000030F1
:1019C000300000000000000000008060180400608B
:1019D00018060100000000E010080810E000000FE9
:1019E000102020100F00001010F800000000002050
:1019F000203F202000000070080808887000003098
:101A0000282422213000003008888848300000183F
:101A1000202020110E000000C02010F80000000758
:101A20000424243F240000F80888880808000019CE
:101A3000212020110E0000E0108888180000000FFF
:101A4000112020110E0000380808C83808000000D6
:101A5000003F000000000070880808887000001C2B
:101A6000222121221C0000E010080810E0000000E4
:101A7000312222110F00000000C0C0000000000051
:101A8000003030000000000000C0C0000000000076
:101A900080B07000000000008040201008000001AD
:101AA0000204081020004040404040404000040430
:101AB00004040404040000081020408000000020FA
:101AC000100804020100007048080808F000000037
:101AD000003036010000C030C828E810E0000718C8
:101AE000272423140B000000C038E0000000203C35
:101AF00023020227382008F8888888700000203FD9
:101B0000202020110E00C0300808080838000718EF
:101B100020202010080008F808080810E000203FE6
:101B2000202020100F0008F88888E8081000203FC7
:101B300020202320180008F88888E8081000203F9B
:101B4000200003000000C030080808380000071813
:101B50002020221E020008F808000008F808203F94
:101B6000210101213F20000808F80808000000209A
:101B7000203F2020000000000808F8080800C0806E
:101B800080807F00000008F888C028180800203FE7
:101B900020012638200008F8080000000000203F3F
:101BA00020202020300008F8F800F8F80800203F36
:101BB000003F003F200008F830C00008F808203F30
:101BC000200007183F00E01008080810E0000F1080
:101BD000202020100F0008F808080808F000203F17
:101BE000210101010000E01008080810E0000F18B2
:101BF000242438504F0008F8888888887000203FD7
:101C00002000030C302000708808080838000038D5
:101C1000202121221C00180808F8080818000000DC
:101C2000203F2000000008F808000008F808001F06
:101C3000202020201F000878880000C838080000F5
:101C400007380E010000F80800F80008F800033C0F
:101C50000700073C030008186880806818082030D7
:101C60002C03032C30200838C800C83808000000B6
:101C7000203F2000000010080808C838080020385D
:101C8000262120201800000000FE020202000000B1
:101C9000007F40404000000C30C000000000000009
:101CA00000010638C00000020202FE0000000040F1
:101CB00040407F00000000201008040810200000B1
:101CC0000000000000000000000000000000808014
:101CD00080808080808000020408000000000000F6
:101CE00000000000000000008080808000000019DB
:101CF000242222223F2008F8008080000000003FBC
:101D0000112020110E000000008080800000000ED5
:101D1000112020201100000000808088F800000EB3
:101D2000112020103F200000808080800000001FD4
:101D3000222222221300008080F088888818002048
:101D4000203F202000000000808080808000006B09
:101D500094949493600008F8008080800000203FF5
:101D6000210000203F200080989800000000002003
:101D7000203F20200000000000809898000000C054
:101D80008080807F000008F8000080808000203F75
:101D900024022D302000000808F800000000002078
:101DA000203F202000008080808080808000203FB5
:101DB00020003F20003F0080800080800000002045
:101DC0003F2100203F200000808080800000001F15
:101DD000202020201F00808000808000000080FFE5
:101DE000A12020110E000000008080808000000EE5
:101DF000112020A0FF808080800080808000202033
:101E00003F2120000100000080808080800000339E
:101E1000242424241900008080E080800000000039
:101E2000001F202000008080000000808000001F34
:101E3000202020103F2080808000008080800001D2
:101E40000E300806010080800080008080800F3006
:101E50000C030C300F000080800080808000002088
:101E6000312E0E31200080808000008080808081B3
:101E70008E70180601000080808080808000002124
:101E8000302C2221300000000000807C0202000083
:101E90000000003F404000000000FF000000000084
:101EA0000000FF0000000002027C800000000040F3
:101EB000403F0000000000804040800000800000A3
:101EC0000000000101000000000000000000002FE1
:101ED000000000000700070000147F147F14002496
:101EE0002A7F2A12002313086462003649552250C3
:101EF00000000007000000001C22410000004122F9
:101F00001C000014083E08140008083E08080000E1
:101F100000A06000000808080808000060600000D9
:101F2000002010080402003E5149453E0000427F57
:101F30004000004261514946002141454B310018A3
:101F400014127F10002745454539003C4A49493065
:101F5000000171090503003649494936000649491F
:101F6000291E00003636000000005636000000082A
:101F70001422410000141414141400004122140807
:101F8000000201510906003E4955592E007C1211EC
:101F9000127C007F49494936003E41414122007F81
:101FA0004141221C007F49494941007F090909013B
:101FB000003E4149497A007F0808087F0000417FC0
:101FC0004100002040413F01007F08142241007F72
:101FD00040404040007F020C027F007F0408107FD9
:101FE000003E4141413E007F09090906003E415142
:101FF000215E007F091929460046494949310001FF
:10200000017F0101003F4040403F001F2040201F52
:10201000003F4038403F0063140814630007087015
:10202000080700615149454300007F41410000021B
:1020300004081020000041417F0000040201020456
:102040000040404040400000010204000020545481
:102050005478007F484444380038444444200038D1
:102060004444487F00385454541800087E09010243
:102070000018A4A4A47C007F080404780000447D18
:102080004000004080847D00007F10284400000054
:10209000417F4000007C04180478007C0804047828
:1020A00000384444443800FC242424180018242414
:1020B00018FC007C08040408004854545420000410
:1020C0003F444020003C4040207C001C2040201C1D
:1020D000003C4030403C004428102844001CA0A094
:1020E000A07C004464544C440000087F4100000080
:1020F000007F00000000417F08000008040810086D
:102100002021000800000020100000002801000825
:102110003021000810000020C00A0000440100081F
:102120000100000010000000000000000024F40086
:04000005080000ED02
:00000001FF
